:020000020000FC
:1000000036C00EC01FC00BC00AC009C008C007C060
:100010001EC005C004C003C002C001C000C01895C6
:100020000FB7C09AB89810E600001A95E9F71FE2DA
:1000300000001A95E9F700003A95C9F7C098B89AF8
:100040000FBF18950FB7B29B369A0FBF18950FB711
:1000500085B194B1869597959050874E87FD03C0E2
:10006000B89AC09802C0B898C09A0FBF1895F89473
:10007000222727BBC39AE199FECF2FBB2EBBE09A64
:100080004DB3B3990BC011E04127E199FECF10E0C9
:100090001CBB2FBB2EBB4DBBE29AE19A40FD21C099
:1000A000222727BB2FEF28BB20E227B927EF26B94D
:1000B00020E023B920E224BB23E025BF20E42BBFAE
:1000C00020E62ABF20E025BB7894349902C0349AF8
:1000D00035B1B39B03C0BC98C49AF7CFBC9AC498FF
:1000E000F4CF222727BB2FEF28BB20E227B92FE927
:1000F00026B926E023B920E224BB23E025BF20E275
:100100002BBF20E62ABF24E025BB7894B39B03C015
:10011000B998C19A02C0B99AC198B499F7CF990F0A
:10012000881F87FD03C0B89AC09802C0B898C09ACB
:06013000B49BFECFEBCFF3
:00000001FF
